:100000000DC1000005C200002EC2000057C2000052
:1000100080C20000A9C20000D2C20000FBC20000E2
:1000200024C300001AC1000018C1000016C100005E
:1000300014C1000012C1000010C100000EC1000078
:100040000CC100000AC1000008C1000006C1000088
:1000500004C1000002C1000000C1000031C3000063
:10006000FCC00000FAC00000F8C00000F6C00000AC
:10007000F4C00000F2C00000F0C00000EEC00000BC
:10008000ECC00000EAC00000E8C00000E6C00000CC
:10009000E4C00000E2C00000E0C00000DEC00000DC
:1000A000DCC00000DAC00000D8C00000D6C00000EC
:1000B000D4C00000D2C00000D0C00000CEC00000FC
:1000C000CCC00000CAC00000C8C00000C6C000000C
:1000D000C4C00000C2C00000C0C00000BEC000001C
:1000E000BCC00000E201AC01B401C001CD01EE01D1
:1000F000FB019C049F048E0492049804D604A3047C
:10010000A704AD04B104B504BB04BF04C304D60402
:10011000C904CD04D10400000A0B02090C0D0E081D
:1001200007030401000000000000000000000000C0
:1001300000000000000000000000000000000000BF
:10014000000012111000000000000000000000007C
:10015000000000000000000000000000010210206C
:1001600020080810204010204080020102010804ED
:100170000201010204081020408080402010080481
:1001800002018004020180402010080402010804DA
:10019000020101020408102040800102040810201E
:1001A0004080050505050705080808080202020247
:1001B0000A0A080804040404010101010101010103
:1001C0000303030303030303040707070C0C0C0CCE
:1001D0000C0C0C0C020202020606060606060606B7
:1001E0000B0B0B0B0B0B0B0B000022002500280048
:1001F0002B002E003100340002010000050108012F
:100200000B0100002100240027002A002D003000EF
:10021000330001010000040107010A0111241FBE7F
:10022000CFEFD1E2DEBFCDBF00E00CBF12E0A0E017
:10023000B2E0EAE0FCE000E00BBF02C007900D92E4
:10024000A831B107D9F722E0A8E1B2E001C01D92C0
:10025000A132B207E1F75FD4D6C4D2CEF894809130
:10026000040290910502BED261E083E0D9D382E31B
:1002700090E0B8D260E083E0D3D3209104023091C3
:1002800005028BE590E2821B930BACD280910402B5
:1002900090910502A7D261E083E0C2D382E390E0AF
:1002A000A1D260E083E0BCD37894089561E083E05C
:1002B0007ED343E050E06EE271E080E039C0AF925F
:1002C000BF92CF92DF92EF92FF920F931F9386E33C
:1002D000F6D2BC01882777FD8095982F1F921F9238
:1002E0002CE12F9328EE2F93A12CB12C6501A39420
:1002F000EE24EA9413E0F12E00E010E020E030E07C
:10030000A901C3D370930502609304020F900F906C
:100310000F900F9064E670E080E090E01F910F91E5
:10032000FF90EF90DF90CF90BF90AF9036C20895CE
:10033000883008F06CC0E82FF0E0EE0FFF1FEA5F96
:10034000FD4F7183608390E0FC013197E730F10548
:1003500088F5EE58FF4F16C4809169008C7F842B7E
:1003600080936900E89A089580916900440F551FB1
:10037000440F551F837F842B80936900E99A089569
:100380008091690074E0440F551F7A95E1F78F7CE6
:10039000842B80936900EA9A08958091690066E051
:1003A000440F551F6A95E1F78F73842B8093690082
:1003B000EB9A089580916A008C7F842B80936A0069
:1003C000EC9A089580916A00440F551F440F551F01
:1003D000837F842B80936A00ED9A089580916A0050
:1003E00024E0440F551F2A95E1F78F7C842B8093DE
:1003F0006A00EE9A089580916A0096E0440F551FB6
:100400009A95E1F78F73842B80936A00EF9A089591
:100410001F920F920FB60F9211240BB60F922F93CB
:100420003F934F935F936F937F938F939F93AF937C
:10043000BF93EF93FF93E0910A02F0910B0219959D
:10044000FF91EF91BF91AF919F918F917F916F91AC
:100450005F914F913F912F910F900BBE0F900FBE68
:100460000F901F9018951F920F920FB60F921124A4
:100470000BB60F922F933F934F935F936F937F939E
:100480008F939F93AF93BF93EF93FF93E0910C02F1
:10049000F0910D021995FF91EF91BF91AF919F914E
:1004A0008F917F916F915F914F913F912F910F901D
:1004B0000BBE0F900FBE0F901F9018951F920F92BA
:1004C0000FB60F9211240BB60F922F933F934F93B9
:1004D0005F936F937F938F939F93AF93BF93EF93AC
:1004E000FF93E0910E02F0910F021995FF91EF91A9
:1004F000BF91AF919F918F917F916F915F914F913C
:100500003F912F910F900BBE0F900FBE0F901F9039
:1005100018951F920F920FB60F9211240BB60F92DF
:100520002F933F934F935F936F937F938F939F93FB
:10053000AF93BF93EF93FF93E0911002F0911102FC
:100540001995FF91EF91BF91AF919F918F917F91FD
:100550006F915F914F913F912F910F900BBE0F9034
:100560000FBE0F901F9018951F920F920FB60F920B
:1005700011240BB60F922F933F934F935F936F937A
:100580007F938F939F93AF93BF93EF93FF93E091EC
:100590000602F09107021995FF91EF91BF91AF917B
:1005A0009F918F917F916F915F914F913F912F918B
:1005B0000F900BBE0F900FBE0F901F9018951F92BB
:1005C0000F920FB60F9211240BB60F922F933F93F9
:1005D0004F935F936F937F938F939F93AF93BF934B
:1005E000EF93FF93E0910802F09109021995FF91B2
:1005F000EF91BF91AF919F918F917F916F915F919B
:100600004F913F912F910F900BBE0F900FBE0F9007
:100610001F9018951F920F920FB60F9211240BB6D0
:100620000F922F933F934F935F936F937F938F938B
:100630009F93AF93BF93EF93FF93E0911202F091DA
:1006400013021995FF91EF91BF91AF919F918F91F7
:100650007F916F915F914F913F912F910F900BBEC2
:100660000F900FBE0F901F9018951F920F920FB60C
:100670000F9211240BB60F922F933F934F935F93DA
:100680006F937F938F939F93AF93BF93EF93FF935A
:10069000E0911402F09115021995FF91EF91BF912D
:1006A000AF919F918F917F916F915F914F913F910A
:1006B0002F910F900BBE0F900FBE0F901F901895AB
:1006C0001F920F920FB60F9211242F933F938F9387
:1006D0009F93AF93BF938091190290911A02A091BA
:1006E0001B02B0911C023091180223E0230F2D371A
:1006F00020F40196A11DB11D05C026E8230F029626
:10070000A11DB11D209318028093190290931A0223
:10071000A0931B02B0931C0280911D0290911E02B7
:10072000A0911F02B09120020196A11DB11D8093DE
:100730001D0290931E02A0931F02B0932002BF914E
:10074000AF919F918F913F912F910F900FBE0F907E
:100750001F9018953FB7F89480911D0290911E024A
:10076000A0911F02B091200226B5A89B05C02F3F83
:1007700019F00196A11DB11D3FBF6627782F892F63
:100780009A2F620F711D811D911D42E0660F771F28
:10079000881F991F4A95D1F70895CF92DF92EF9263
:1007A000FF92CF93DF936B017C01D4DFEB01C11487
:1007B000D104E104F10479F0B9D1CCDF6C1B7D0BDD
:1007C000683E7340A0F381E0C81AD108E108F1083F
:1007D000C851DC4FECCFDF91CF91FF90EF90DF90CD
:1007E000CF9008958230910538F0880F991F880FB7
:1007F000991F05970197F1F70895789484B5826061
:1008000084BD84B5816084BD85B5826085BD85B5B4
:10081000816085BDEEE6F0E0808181608083E1E863
:10082000F0E010828081826080838081816080839B
:10083000E0E8F0E0808181608083E1EBF0E080819E
:1008400084608083E0EBF0E0808181608083E1E977
:10085000F0E0808182608083808181608083E0E934
:10086000F0E0808181608083E1EAF0E08081826055
:100870008083808181608083E0EAF0E08081816014
:100880008083E1E2F1E08081826080838081816009
:100890008083E0E2F1E0808181608083EAE7F0E03C
:1008A0008081846080838081826080838081816098
:1008B00080838081806880831092C1000895863390
:1008C00008F0865320917B00982F9870277F922BF9
:1008D00090937B0087702091160290E4299F9001ED
:1008E0001124822B80937C0080917A008064809315
:1008F0007A0080917A0086FDFCCF8091780020916B
:10090000790090E0922B089590E0FC013197E2315C
:10091000F10508F04BC0E758FF4F34C180918000CB
:100920008F7703C0809180008F7D80938000089531
:1009300080918000877FF9CF84B58F7702C084B51E
:100940008F7D84BD08958091B0008F7703C0809122
:10095000B0008F7D8093B0000895809190008F77D4
:1009600007C0809190008F7D03C080919000877FA9
:100970008093900008958091A0008F7707C08091A8
:10098000A0008F7D03C08091A000877F8093A0008E
:100990000895809120018F7707C0809120018F7D7D
:1009A00003C080912001877F809320010895CF9319
:1009B000DF9390E0FC01E45AFE4F2491FC01EE55D8
:1009C000FE4F8491882349F190E0880F991FFC0124
:1009D000EE5FFD4FA591B49188519E4FFC01C591EA
:1009E000D4919FB7611108C0F8948C91209582230F
:1009F0008C93888182230AC0623051F4F8948C91E0
:100A0000322F309583238C938881822B888304C076
:100A1000F8948C91822B8C939FBFDF91CF91089596
:100A20000F931F93CF93DF931F92CDB7DEB7282F7D
:100A300030E0F901EA5EFE4F8491F901E45AFE4F7D
:100A40001491F901EE55FE4F04910023C1F0882363
:100A500019F0698359DF6981E02FF0E0EE0FFF1F85
:100A6000E851FE4FA591B4919FB7F8948C91611114
:100A700003C01095812301C0812B8C939FBF0F90E1
:100A8000DF91CF911F910F9108954F925F926F92D6
:100A90007F92AF92BF92CF92DF92EF92FF920F932D
:100AA0001F93CF93DF93CDB7DEB729013A01621BC5
:100AB000730B840B950B2A893B894C895D892A1914
:100AC0003B094C095D092A8B3B8B4C8B5D8B9B0151
:100AD000AC016A897B898C899D8929D0E418F50845
:100AE00006091709A801970131D02A0D3B1D4C1D9D
:100AF0005D1DCA01B901DF91CF911F910F91FF9048
:100B0000EF90DF90CF90BF90AF907F906F905F900D
:100B10004F900895089571DEFDDFC8DBC0E0D0E09E
:100B2000CEDB2097E9F30E940000FACF0895DB01A5
:100B30008F939F932DD0BF91AF91A29F800D911D58
:100B4000A39F900DB29F900D11240895052E97FB41
:100B500016F400940FD057FD05D024D007FC02D026
:100B600046F408C050954095309521953F4F4F4F22
:100B70005F4F089590958095709561957F4F8F4F49
:100B80009F4F0895EE0FFF1F0590F491E02D1994EB
:100B90002BD0A59F900DB49F900DA49F800D911D0B
:100BA00011240895A1E21A2EAA1BBB1BFD010DC042
:100BB000AA1FBB1FEE1FFF1FA217B307E407F5070D
:100BC00020F0A21BB30BE40BF50B661F771F881FE9
:100BD000991F1A9469F760957095809590959B017F
:100BE000AC01BD01CF010895A29FB001B39FC00128
:100BF000A39F700D811D1124911DB29F700D811D49
:0A0C00001124911D0895F894FFCF10
:100C0A0001000000A00F9701970197019701970132
:080C1A00970197019701010009
:00000001FF
